{
  "contractName": "Greeting",
  "abi": [
    {
      "inputs": [],
      "name": "greeting",
      "outputs": [
        {
          "internalType": "string",
          "name": "",
          "type": "string"
        }
      ],
      "stateMutability": "view",
      "type": "function"
    },
    {
      "inputs": [],
      "name": "sayHello",
      "outputs": [
        {
          "internalType": "string",
          "name": "",
          "type": "string"
        }
      ],
      "stateMutability": "view",
      "type": "function"
    },
    {
      "inputs": [
        {
          "internalType": "string",
          "name": "_greeting",
          "type": "string"
        }
      ],
      "name": "updateGreeting",
      "outputs": [],
      "stateMutability": "nonpayable",
      "type": "function"
    }
  ],
  "bytecode": "0x60806040526040518060400160405280600581526020017f68656c6c6f000000000000000000000000000000000000000000000000000000815250600090816200004a9190620002d9565b503480156200005857600080fd5b50620003c0565b600081519050919050565b7f4e487b7100000000000000000000000000000000000000000000000000000000600052604160045260246000fd5b7f4e487b7100000000000000000000000000000000000000000000000000000000600052602260045260246000fd5b60006002820490506001821680620000e157607f821691505b602082108103620000f757620000f662000099565b5b50919050565b60008190508160005260206000209050919050565b60006020601f8301049050919050565b600082821b905092915050565b600060088302620001617fffffffffffffffffffffffffffffffffffffffffffffffffffffffffffffffff8262000122565b6200016d868362000122565b95508019841693508086168417925050509392505050565b6000819050919050565b6000819050919050565b6000620001ba620001b4620001ae8462000185565b6200018f565b62000185565b9050919050565b6000819050919050565b620001d68362000199565b620001ee620001e582620001c1565b8484546200012f565b825550505050565b600090565b62000205620001f6565b62000212818484620001cb565b505050565b5b818110156200023a576200022e600082620001fb565b60018101905062000218565b5050565b601f82111562000289576200025381620000fd565b6200025e8462000112565b810160208510156200026e578190505b620002866200027d8562000112565b83018262000217565b50505b505050565b600082821c905092915050565b6000620002ae600019846008026200028e565b1980831691505092915050565b6000620002c983836200029b565b9150826002028217905092915050565b620002e4826200005f565b67ffffffffffffffff8111156200030057620002ff6200006a565b5b6200030c8254620000c8565b620003198282856200023e565b600060209050601f8311600181146200035157600084156200033c578287015190505b620003488582620002bb565b865550620003b8565b601f1984166200036186620000fd565b60005b828110156200038b5784890151825560018201915060208501945060208101905062000364565b86831015620003ab5784890151620003a7601f8916826200029b565b8355505b6001600288020188555050505b505050505050565b61069880620003d06000396000f3fe608060405234801561001057600080fd5b50600436106100415760003560e01c80632867cc4414610046578063ef5fb05b14610062578063ef690cc014610080575b600080fd5b610060600480360381019061005b9190610243565b61009e565b005b61006a6100b4565b6040516100779190610320565b60405180910390f35b610088610146565b6040516100959190610320565b60405180910390f35b8181600091826100af929190610592565b505050565b6060600080546100c3906103ab565b80601f01602080910402602001604051908101604052809291908181526020018280546100ef906103ab565b801561013c5780601f106101115761010080835404028352916020019161013c565b820191906000526020600020905b81548152906001019060200180831161011f57829003601f168201915b5050505050905090565b60008054610153906103ab565b80601f016020809104026020016040519081016040528092919081815260200182805461017f906103ab565b80156101cc5780601f106101a1576101008083540402835291602001916101cc565b820191906000526020600020905b8154815290600101906020018083116101af57829003601f168201915b505050505081565b600080fd5b600080fd5b600080fd5b600080fd5b600080fd5b60008083601f840112610203576102026101de565b5b8235905067ffffffffffffffff8111156102205761021f6101e3565b5b60208301915083600182028301111561023c5761023b6101e8565b5b9250929050565b6000806020838503121561025a576102596101d4565b5b600083013567ffffffffffffffff811115610278576102776101d9565b5b610284858286016101ed565b92509250509250929050565b600081519050919050565b600082825260208201905092915050565b60005b838110156102ca5780820151818401526020810190506102af565b60008484015250505050565b6000601f19601f8301169050919050565b60006102f282610290565b6102fc818561029b565b935061030c8185602086016102ac565b610315816102d6565b840191505092915050565b6000602082019050818103600083015261033a81846102e7565b905092915050565b600082905092915050565b7f4e487b7100000000000000000000000000000000000000000000000000000000600052604160045260246000fd5b7f4e487b7100000000000000000000000000000000000000000000000000000000600052602260045260246000fd5b600060028204905060018216806103c357607f821691505b6020821081036103d6576103d561037c565b5b50919050565b60008190508160005260206000209050919050565b60006020601f8301049050919050565b600082821b905092915050565b60006008830261043e7fffffffffffffffffffffffffffffffffffffffffffffffffffffffffffffffff82610401565b6104488683610401565b95508019841693508086168417925050509392505050565b6000819050919050565b6000819050919050565b600061048f61048a61048584610460565b61046a565b610460565b9050919050565b6000819050919050565b6104a983610474565b6104bd6104b582610496565b84845461040e565b825550505050565b600090565b6104d26104c5565b6104dd8184846104a0565b505050565b5b81811015610501576104f66000826104ca565b6001810190506104e3565b5050565b601f82111561054657610517816103dc565b610520846103f1565b8101602085101561052f578190505b61054361053b856103f1565b8301826104e2565b50505b505050565b600082821c905092915050565b60006105696000198460080261054b565b1980831691505092915050565b60006105828383610558565b9150826002028217905092915050565b61059c8383610342565b67ffffffffffffffff8111156105b5576105b461034d565b5b6105bf82546103ab565b6105ca828285610505565b6000601f8311600181146105f957600084156105e7578287013590505b6105f18582610576565b865550610659565b601f198416610607866103dc565b60005b8281101561062f5784890135825560018201915060208501945060208101905061060a565b8683101561064c5784890135610648601f891682610558565b8355505b6001600288020188555050505b5050505050505056fea26469706673582212209697a202e6960f3b518f745674e9a05399fd2f972e964568da46f85828c4edca64736f6c63430008110033",
  "immutableReferences": {},
  "source": "\n// SPDX-License-Identifier: MIT\npragma solidity 0.8.17;\n\ncontract Greeting {\n    string public greeting = \"hello\";\n\n    function sayHello() external view returns (string memory) {\n        return greeting;\n    }\n\n    function updateGreeting(string calldata _greeting) external {\n        greeting = _greeting;\n    }\n}\n",
  "sourcePath": "/Users/sasidharan/Desktop/Projects/temp/contracts/Greeting.sol",
  "compiler": {
    "name": "solc",
    "version": "0.8.17+commit.8df45f5f.Emscripten.clang"
  },
  "schemaVersion": "3.4.10",
  "updatedAt": "2022-09-22T17:28:05.676Z",
  "devdoc": {
    "kind": "dev",
    "methods": {},
    "version": 1
  },
  "userdoc": {
    "kind": "user",
    "methods": {},
    "version": 1
  }
}